{
  "_format": "hh-sol-artifact-1",
  "contractName": "MetassetExchange",
  "sourceName": "contracts/MetassetExchange.sol",
  "abi": [
    {
      "inputs": [
        {
          "internalType": "address",
          "name": "_currencyManager",
          "type": "address"
        },
        {
          "internalType": "address",
          "name": "_distributorSignerManager",
          "type": "address"
        },
        {
          "internalType": "address",
          "name": "_executionManager",
          "type": "address"
        },
        {
          "internalType": "address",
          "name": "_royaltyFeeManager",
          "type": "address"
        },
        {
          "internalType": "address",
          "name": "_WETH",
          "type": "address"
        },
        {
          "internalType": "address",
          "name": "_protocolFeeRecipient",
          "type": "address"
        }
      ],
      "stateMutability": "nonpayable",
      "type": "constructor"
    },
    {
      "anonymous": false,
      "inputs": [
        {
          "indexed": true,
          "internalType": "address",
          "name": "user",
          "type": "address"
        },
        {
          "indexed": false,
          "internalType": "uint256",
          "name": "newMinNonce",
          "type": "uint256"
        }
      ],
      "name": "CancelAllOrders",
      "type": "event"
    },
    {
      "anonymous": false,
      "inputs": [
        {
          "indexed": true,
          "internalType": "address",
          "name": "user",
          "type": "address"
        },
        {
          "indexed": false,
          "internalType": "uint256[]",
          "name": "orderNonces",
          "type": "uint256[]"
        }
      ],
      "name": "CancelMultipleOrders",
      "type": "event"
    },
    {
      "anonymous": false,
      "inputs": [
        {
          "indexed": true,
          "internalType": "address",
          "name": "currencyManager",
          "type": "address"
        }
      ],
      "name": "NewCurrencyManager",
      "type": "event"
    },
    {
      "anonymous": false,
      "inputs": [
        {
          "indexed": true,
          "internalType": "address",
          "name": "distributorSignerManager",
          "type": "address"
        }
      ],
      "name": "NewDistributorSignerManager",
      "type": "event"
    },
    {
      "anonymous": false,
      "inputs": [
        {
          "indexed": true,
          "internalType": "address",
          "name": "executionManager",
          "type": "address"
        }
      ],
      "name": "NewExecutionManager",
      "type": "event"
    },
    {
      "anonymous": false,
      "inputs": [
        {
          "indexed": true,
          "internalType": "address",
          "name": "protocolFeeRecipient",
          "type": "address"
        }
      ],
      "name": "NewProtocolFeeRecipient",
      "type": "event"
    },
    {
      "anonymous": false,
      "inputs": [
        {
          "indexed": true,
          "internalType": "address",
          "name": "royaltyFeeManager",
          "type": "address"
        }
      ],
      "name": "NewRoyaltyFeeManager",
      "type": "event"
    },
    {
      "anonymous": false,
      "inputs": [
        {
          "indexed": true,
          "internalType": "address",
          "name": "transferSelectorNFT",
          "type": "address"
        }
      ],
      "name": "NewTransferSelectorNFT",
      "type": "event"
    },
    {
      "anonymous": false,
      "inputs": [
        {
          "indexed": true,
          "internalType": "address",
          "name": "previousOwner",
          "type": "address"
        },
        {
          "indexed": true,
          "internalType": "address",
          "name": "newOwner",
          "type": "address"
        }
      ],
      "name": "OwnershipTransferred",
      "type": "event"
    },
    {
      "anonymous": false,
      "inputs": [
        {
          "indexed": true,
          "internalType": "address",
          "name": "collection",
          "type": "address"
        },
        {
          "indexed": true,
          "internalType": "uint256",
          "name": "tokenId",
          "type": "uint256"
        },
        {
          "indexed": true,
          "internalType": "address",
          "name": "royaltyRecipient",
          "type": "address"
        },
        {
          "indexed": false,
          "internalType": "address",
          "name": "currency",
          "type": "address"
        },
        {
          "indexed": false,
          "internalType": "uint256",
          "name": "amount",
          "type": "uint256"
        }
      ],
      "name": "RoyaltyPayment",
      "type": "event"
    },
    {
      "anonymous": false,
      "inputs": [
        {
          "indexed": false,
          "internalType": "bytes32",
          "name": "orderHash",
          "type": "bytes32"
        },
        {
          "indexed": false,
          "internalType": "uint256",
          "name": "orderNonce",
          "type": "uint256"
        },
        {
          "indexed": true,
          "internalType": "address",
          "name": "taker",
          "type": "address"
        },
        {
          "indexed": true,
          "internalType": "address",
          "name": "maker",
          "type": "address"
        },
        {
          "indexed": true,
          "internalType": "address",
          "name": "strategy",
          "type": "address"
        },
        {
          "indexed": false,
          "internalType": "address",
          "name": "currency",
          "type": "address"
        },
        {
          "indexed": false,
          "internalType": "address",
          "name": "collection",
          "type": "address"
        },
        {
          "indexed": false,
          "internalType": "uint256",
          "name": "tokenId",
          "type": "uint256"
        },
        {
          "indexed": false,
          "internalType": "uint256",
          "name": "amount",
          "type": "uint256"
        },
        {
          "indexed": false,
          "internalType": "uint256",
          "name": "price",
          "type": "uint256"
        }
      ],
      "name": "TakerBid",
      "type": "event"
    },
    {
      "inputs": [],
      "name": "DOMAIN_SEPARATOR",
      "outputs": [
        {
          "internalType": "bytes32",
          "name": "",
          "type": "bytes32"
        }
      ],
      "stateMutability": "view",
      "type": "function"
    },
    {
      "inputs": [],
      "name": "WETH",
      "outputs": [
        {
          "internalType": "address",
          "name": "",
          "type": "address"
        }
      ],
      "stateMutability": "view",
      "type": "function"
    },
    {
      "inputs": [
        {
          "internalType": "uint256",
          "name": "minNonce",
          "type": "uint256"
        }
      ],
      "name": "cancelAllOrdersForSender",
      "outputs": [],
      "stateMutability": "nonpayable",
      "type": "function"
    },
    {
      "inputs": [
        {
          "internalType": "uint256[]",
          "name": "orderNonces",
          "type": "uint256[]"
        }
      ],
      "name": "cancelMultipleMakerOrders",
      "outputs": [],
      "stateMutability": "nonpayable",
      "type": "function"
    },
    {
      "inputs": [],
      "name": "currencyManager",
      "outputs": [
        {
          "internalType": "contract ICurrencyManager",
          "name": "",
          "type": "address"
        }
      ],
      "stateMutability": "view",
      "type": "function"
    },
    {
      "inputs": [],
      "name": "distributorSignerManager",
      "outputs": [
        {
          "internalType": "contract IDistributorSignerManager",
          "name": "",
          "type": "address"
        }
      ],
      "stateMutability": "view",
      "type": "function"
    },
    {
      "inputs": [],
      "name": "executionManager",
      "outputs": [
        {
          "internalType": "contract IExecutionManager",
          "name": "",
          "type": "address"
        }
      ],
      "stateMutability": "view",
      "type": "function"
    },
    {
      "inputs": [
        {
          "components": [
            {
              "internalType": "bool",
              "name": "isOrderAsk",
              "type": "bool"
            },
            {
              "internalType": "address",
              "name": "taker",
              "type": "address"
            },
            {
              "internalType": "uint256",
              "name": "price",
              "type": "uint256"
            },
            {
              "internalType": "uint256",
              "name": "tokenId",
              "type": "uint256"
            },
            {
              "internalType": "uint256",
              "name": "minPercentageToAsk",
              "type": "uint256"
            },
            {
              "internalType": "bytes",
              "name": "params",
              "type": "bytes"
            }
          ],
          "internalType": "struct OrderTypes.TakerOrder",
          "name": "takerBid",
          "type": "tuple"
        },
        {
          "components": [
            {
              "internalType": "bool",
              "name": "isOrderAsk",
              "type": "bool"
            },
            {
              "internalType": "address",
              "name": "signer",
              "type": "address"
            },
            {
              "internalType": "address",
              "name": "collection",
              "type": "address"
            },
            {
              "internalType": "uint256",
              "name": "price",
              "type": "uint256"
            },
            {
              "internalType": "uint256",
              "name": "tokenId",
              "type": "uint256"
            },
            {
              "internalType": "uint256",
              "name": "amount",
              "type": "uint256"
            },
            {
              "internalType": "address",
              "name": "strategy",
              "type": "address"
            },
            {
              "internalType": "address",
              "name": "currency",
              "type": "address"
            },
            {
              "internalType": "uint256",
              "name": "nonce",
              "type": "uint256"
            },
            {
              "internalType": "uint256",
              "name": "startTime",
              "type": "uint256"
            },
            {
              "internalType": "uint256",
              "name": "endTime",
              "type": "uint256"
            },
            {
              "internalType": "uint256",
              "name": "minPercentageToAsk",
              "type": "uint256"
            },
            {
              "internalType": "uint256",
              "name": "distributorPercentage",
              "type": "uint256"
            },
            {
              "internalType": "uint8",
              "name": "v",
              "type": "uint8"
            },
            {
              "internalType": "bytes32",
              "name": "r",
              "type": "bytes32"
            },
            {
              "internalType": "bytes32",
              "name": "s",
              "type": "bytes32"
            }
          ],
          "internalType": "struct OrderTypes.MakerOrder",
          "name": "makerAsk",
          "type": "tuple"
        },
        {
          "components": [
            {
              "internalType": "address",
              "name": "signer",
              "type": "address"
            },
            {
              "internalType": "address",
              "name": "distributor",
              "type": "address"
            },
            {
              "internalType": "bytes32",
              "name": "makerOrderHash",
              "type": "bytes32"
            },
            {
              "internalType": "bytes",
              "name": "params",
              "type": "bytes"
            },
            {
              "internalType": "uint8",
              "name": "v",
              "type": "uint8"
            },
            {
              "internalType": "bytes32",
              "name": "r",
              "type": "bytes32"
            },
            {
              "internalType": "bytes32",
              "name": "s",
              "type": "bytes32"
            }
          ],
          "internalType": "struct OrderTypes.DistributorOrder",
          "name": "distributorOrder",
          "type": "tuple"
        }
      ],
      "name": "matchAskWithTakerBidUsingETHAndWETH",
      "outputs": [],
      "stateMutability": "payable",
      "type": "function"
    },
    {
      "inputs": [],
      "name": "owner",
      "outputs": [
        {
          "internalType": "address",
          "name": "",
          "type": "address"
        }
      ],
      "stateMutability": "view",
      "type": "function"
    },
    {
      "inputs": [],
      "name": "protocolFeeRecipient",
      "outputs": [
        {
          "internalType": "address",
          "name": "",
          "type": "address"
        }
      ],
      "stateMutability": "view",
      "type": "function"
    },
    {
      "inputs": [],
      "name": "renounceOwnership",
      "outputs": [],
      "stateMutability": "nonpayable",
      "type": "function"
    },
    {
      "inputs": [],
      "name": "royaltyFeeManager",
      "outputs": [
        {
          "internalType": "contract IRoyaltyFeeManager",
          "name": "",
          "type": "address"
        }
      ],
      "stateMutability": "view",
      "type": "function"
    },
    {
      "inputs": [
        {
          "internalType": "address",
          "name": "newOwner",
          "type": "address"
        }
      ],
      "name": "transferOwnership",
      "outputs": [],
      "stateMutability": "nonpayable",
      "type": "function"
    },
    {
      "inputs": [],
      "name": "transferSelectorNFT",
      "outputs": [
        {
          "internalType": "contract ITransferSelectorNFT",
          "name": "",
          "type": "address"
        }
      ],
      "stateMutability": "view",
      "type": "function"
    },
    {
      "inputs": [
        {
          "internalType": "address",
          "name": "_currencyManager",
          "type": "address"
        }
      ],
      "name": "updateCurrencyManager",
      "outputs": [],
      "stateMutability": "nonpayable",
      "type": "function"
    },
    {
      "inputs": [
        {
          "internalType": "address",
          "name": "_distributorSignerManager",
          "type": "address"
        }
      ],
      "name": "updateDistributorCurrencyManager",
      "outputs": [],
      "stateMutability": "nonpayable",
      "type": "function"
    },
    {
      "inputs": [
        {
          "internalType": "address",
          "name": "_executionManager",
          "type": "address"
        }
      ],
      "name": "updateExecutionManager",
      "outputs": [],
      "stateMutability": "nonpayable",
      "type": "function"
    },
    {
      "inputs": [
        {
          "internalType": "address",
          "name": "_protocolFeeRecipient",
          "type": "address"
        }
      ],
      "name": "updateProtocolFeeRecipient",
      "outputs": [],
      "stateMutability": "nonpayable",
      "type": "function"
    },
    {
      "inputs": [
        {
          "internalType": "address",
          "name": "_royaltyFeeManager",
          "type": "address"
        }
      ],
      "name": "updateRoyaltyFeeManager",
      "outputs": [],
      "stateMutability": "nonpayable",
      "type": "function"
    },
    {
      "inputs": [
        {
          "internalType": "address",
          "name": "_transferSelectorNFT",
          "type": "address"
        }
      ],
      "name": "updateTransferSelectorNFT",
      "outputs": [],
      "stateMutability": "nonpayable",
      "type": "function"
    },
    {
      "inputs": [
        {
          "internalType": "address",
          "name": "",
          "type": "address"
        }
      ],
      "name": "userMinOrderNonce",
      "outputs": [
        {
          "internalType": "uint256",
          "name": "",
          "type": "uint256"
        }
      ],
      "stateMutability": "view",
      "type": "function"
    }
  ],
  "bytecode": "0x60c06040523480156200001157600080fd5b5060405162003051380380620030518339810160408190526200003491620001c9565b600160005562000044336200015a565b604080517f8b73c3c69bb8fe3d512ecc4cf759cc79239f7b179b0ffacaa9a75d522b39400f60208201527f18d52bb67ade53e059dc87a312426737f1d0903adefea20b34306ee7718dd939918101919091527fc89efdaa54c0f20c7adf612882df0950f5a951637e0307cdcb4c672f298b8bc660608201524660808201523060a082015260c00160408051808303601f19018152919052805160209091012060a052600380546001600160a01b03199081166001600160a01b039889161790915560048054821696881696909617909555600580548616948716949094179093556006805485169286169290921790915560601b6001600160601b03191660805260028054909216921691909117905562000249565b600180546001600160a01b038381166001600160a01b0319831681179093556040519116919082907f8be0079c531659141344cd1fd0a4f28419497f9722a3daafe3b4186f6b6457e090600090a35050565b80516001600160a01b0381168114620001c457600080fd5b919050565b60008060008060008060c08789031215620001e2578182fd5b620001ed87620001ac565b9550620001fd60208801620001ac565b94506200020d60408801620001ac565b93506200021d60608801620001ac565b92506200022d60808801620001ac565b91506200023d60a08801620001ac565b90509295509295509295565b60805160601c60a051612d99620002b8600039600081816101a0015281816114480152611715015260008181610335015281816105f40152818161071401528181610796015281816118a60152818161192101528181611a1201528181611a7d0152611b3c0152612d996000f3fe60806040526004361061012a5760003560e01c8063802f84dc116100ab578063bd455ff11161006f578063bd455ff114610357578063c549876914610377578063cbd2ec6514610397578063d4ff41dc146103b7578063f2fde38b146103d7578063f75ff53f146103f757600080fd5b8063802f84dc146102a557806387e4401f146102c55780638da5cb5b146102e55780639e53a69a14610303578063ad5c46481461032357600080fd5b80635ce052d7116100f25780635ce052d71461021d5780635e14f68e1461023d57806364df049e1461025d5780636b2590f31461027d578063715018a61461029057600080fd5b80630f747d741461012f5780631df47f801461016c5780633644e5151461018e5780634266581e146101d0578063483abb9f146101fd575b600080fd5b34801561013b57600080fd5b5060035461014f906001600160a01b031681565b6040516001600160a01b0390911681526020015b60405180910390f35b34801561017857600080fd5b5061018c610187366004612457565b610417565b005b34801561019a57600080fd5b506101c27f000000000000000000000000000000000000000000000000000000000000000081565b604051908152602001610163565b3480156101dc57600080fd5b506101c26101eb366004612457565b60086020526000908152604090205481565b34801561020957600080fd5b5060055461014f906001600160a01b031681565b34801561022957600080fd5b5061018c610238366004612457565b610494565b34801561024957600080fd5b5060075461014f906001600160a01b031681565b34801561026957600080fd5b5060025461014f906001600160a01b031681565b61018c61028b3660046126b1565b61052e565b34801561029c57600080fd5b5061018c610b80565b3480156102b157600080fd5b5061018c6102c0366004612457565b610bb6565b3480156102d157600080fd5b5060065461014f906001600160a01b031681565b3480156102f157600080fd5b506001546001600160a01b031661014f565b34801561030f57600080fd5b5061018c61031e3660046124bc565b610c50565b34801561032f57600080fd5b5061014f7f000000000000000000000000000000000000000000000000000000000000000081565b34801561036357600080fd5b5060045461014f906001600160a01b031681565b34801561038357600080fd5b5061018c610392366004612457565b610db6565b3480156103a357600080fd5b5061018c6103b236600461273e565b610e50565b3480156103c357600080fd5b5061018c6103d2366004612457565b610f42565b3480156103e357600080fd5b5061018c6103f2366004612457565b610fdc565b34801561040357600080fd5b5061018c610412366004612457565b611077565b6001546001600160a01b0316331461044a5760405162461bcd60e51b815260040161044190612a27565b60405180910390fd5b600280546001600160a01b0319166001600160a01b0383169081179091556040517f8cffb07faa2874440346743bdc0a86b06c3335cc47dc49b327d10e77b73ceb1090600090a250565b6001546001600160a01b031633146104be5760405162461bcd60e51b815260040161044190612a27565b6001600160a01b0381166104e45760405162461bcd60e51b8152600401610441906129f0565b600380546001600160a01b0319166001600160a01b0383169081179091556040517fb4f5db40df3aced29e88a4babbc3b46e305e07d34098525d18b1497056e6383890600090a250565b600260005414156105815760405162461bcd60e51b815260206004820152601f60248201527f5265656e7472616e637947756172643a207265656e7472616e742063616c6c006044820152606401610441565b6002600055610593602083018361252c565b80156105a957506105a7602084018461252c565b155b6105ea5760405162461bcd60e51b81526020600482015260126024820152714f726465723a2057726f6e6720736964657360701b6044820152606401610441565b6001600160a01b037f000000000000000000000000000000000000000000000000000000000000000016610625610100840160e08501612457565b6001600160a01b03161461067b5760405162461bcd60e51b815260206004820152601c60248201527f4f726465723a2043757272656e6379206d7573742062652057455448000000006044820152606401610441565b61068b6040840160208501612457565b6001600160a01b0316336001600160a01b0316146106eb5760405162461bcd60e51b815260206004820152601f60248201527f4f726465723a2054616b6572206d757374206265207468652073656e646572006044820152606401610441565b34836040013511156107415761073c333061070a346040880135612c1e565b6001600160a01b037f000000000000000000000000000000000000000000000000000000000000000016929190611111565b610794565b348360400135146107945760405162461bcd60e51b815260206004820152601960248201527f4f726465723a204d73672e76616c756520746f6f2068696768000000000000006044820152606401610441565b7f00000000000000000000000000000000000000000000000000000000000000006001600160a01b031663d0e30db0346040518263ffffffff1660e01b81526004016000604051808303818588803b1580156107ef57600080fd5b505af1158015610803573d6000803e3d6000fd5b505050505060006108238380360381019061081e91906125c2565b611182565b9050816040013581146108b55760405162461bcd60e51b815260206004820152604e60248201527f4f726465723a2041736b206861736820646f6573206e6f74206d61746368207460448201527f6865206d616b6572206f7264657220686173682066726f6d207468652064697360648201526d3a3934b13aba37b91037b93232b960911b608482015260a401610441565b6108bf8382611223565b6108c88261167a565b6000808080806108de60e0890160c08a01612457565b6001600160a01b03166355a97cf18a8a6040518363ffffffff1660e01b815260040161090b929190612aa2565b60606040518083038186803b15801561092357600080fd5b505afa158015610937573d6000803e3d6000fd5b505050506040513d601f19601f8201168201806040525081019061095b9190612564565b925092509250826109ae5760405162461bcd60e51b815260206004820152601b60248201527f53747261746567793a20457865637574696f6e20696e76616c696400000000006044820152606401610441565b909350915060019050600960006109cb6040890160208a01612457565b6001600160a01b03168152602080820192909252604090810160009081206101008a013582529092529020805460ff1916911515919091179055610a62610a1860e0870160c08801612457565b610a286060880160408901612457565b84610a3960408a0160208b01612457565b8a604001358a61016001358b61018001358b6020016020810190610a5d9190612457565b611867565b610a9c610a756060870160408801612457565b610a856040880160208901612457565b610a9560408a0160208b01612457565b8585611b6e565b610aac60e0860160c08701612457565b6001600160a01b0316610ac56040870160208801612457565b6001600160a01b0316610ade6040890160208a01612457565b6001600160a01b03167f95fb6205e23ff6bda16a2d1dba56b9ad7c783f67c96fa149785052f47696f2be866101008a01803590610b1e9060e08d01612457565b610b2e60608d0160408e01612457565b6040805194855260208501939093526001600160a01b03918216848401521660608301526080820188905260a082018790528b013560c082015260e00160405180910390a45050600160005550505050565b6001546001600160a01b03163314610baa5760405162461bcd60e51b815260040161044190612a27565b610bb46000611cd9565b565b6001546001600160a01b03163314610be05760405162461bcd60e51b815260040161044190612a27565b6001600160a01b038116610c065760405162461bcd60e51b8152600401610441906129f0565b600480546001600160a01b0319166001600160a01b0383169081179091556040517f8f3b5c972e6b1bd7b4c896bca2959f2dc4b682cb783c85f52839065b3560d86c90600090a250565b80610c9d5760405162461bcd60e51b815260206004820152601760248201527f43616e63656c3a2043616e6e6f7420626520656d7074790000000000000000006044820152606401610441565b60005b81811015610d6e5733600090815260086020526040902054838383818110610cd857634e487b7160e01b600052603260045260246000fd5b905060200201351015610cfd5760405162461bcd60e51b815260040161044190612a5c565b336000908152600960205260408120600191858585818110610d2f57634e487b7160e01b600052603260045260246000fd5b90506020020135815260200190815260200160002060006101000a81548160ff0219169083151502179055508080610d6690612cf9565b915050610ca0565b50336001600160a01b03167ffa0ae5d80fe3763c880a3839fab0294171a6f730d1f82c4cd5392c6f67b417328383604051610daa9291906128f7565b60405180910390a25050565b6001546001600160a01b03163314610de05760405162461bcd60e51b815260040161044190612a27565b6001600160a01b038116610e065760405162461bcd60e51b8152600401610441906129f0565b600680546001600160a01b0319166001600160a01b0383169081179091556040517f80e3874461ebbd918ac3e81da0a92e5e51387d70f337237c9123e48d20e5a50890600090a250565b336000908152600860205260409020548111610e7e5760405162461bcd60e51b815260040161044190612a5c565b33600090815260086020526040902054610e9b906207a120612bc7565b8110610ef35760405162461bcd60e51b815260206004820152602160248201527f43616e63656c3a2043616e6e6f742063616e63656c206d6f7265206f726465726044820152607360f81b6064820152608401610441565b3360008181526008602052604090819020839055517f1e7178d84f0b0825c65795cd62e7972809ad3aac6917843aaec596161b2c0a9790610f379084815260200190565b60405180910390a250565b6001546001600160a01b03163314610f6c5760405162461bcd60e51b815260040161044190612a27565b6001600160a01b038116610f925760405162461bcd60e51b8152600401610441906129f0565b600580546001600160a01b0319166001600160a01b0383169081179091556040517f36e2a376eabc3bc60cb88f29c288f53e36874a95a7f407330ab4f166b090569890600090a250565b6001546001600160a01b031633146110065760405162461bcd60e51b815260040161044190612a27565b6001600160a01b03811661106b5760405162461bcd60e51b815260206004820152602660248201527f4f776e61626c653a206e6577206f776e657220697320746865207a65726f206160448201526564647265737360d01b6064820152608401610441565b61107481611cd9565b50565b6001546001600160a01b031633146110a15760405162461bcd60e51b815260040161044190612a27565b6001600160a01b0381166110c75760405162461bcd60e51b8152600401610441906129f0565b600780546001600160a01b0319166001600160a01b0383169081179091556040517f205d78ab41afe80bd6b6aaa5d7599d5300ff8690da3ab1302c1b552f7baf7d8c90600090a250565b6040516001600160a01b038085166024830152831660448201526064810182905261117c9085906323b872dd60e01b906084015b60408051601f198184030181529190526020810180516001600160e01b03166001600160e01b031990931692909217909152611d2b565b50505050565b80516020808301516040808501516060860151608087015160a088015160c089015160e08a01516101008b01516101208c01516101408d01516101608e01516101808f01519a5160009e6112069e7f6a319bde40a4fa0597ddf6a7ff7ed7c4efb3cdec0274615df6392a753786af919e919d919c9b9a999897969594939201612931565b604051602081830303815290604052805190602001209050919050565b600960006112376040850160208601612457565b6001600160a01b0316815260208082019290925260409081016000908120610100860135825290925290205460ff161580156112ac5750600860006112826040850160208601612457565b6001600160a01b03166001600160a01b031681526020019081526020016000205482610100013510155b6112f85760405162461bcd60e51b815260206004820152601d60248201527f4f726465723a204d61746368696e67206f7264657220657870697265640000006044820152606401610441565b600061130a6040840160208501612457565b6001600160a01b031614156113595760405162461bcd60e51b815260206004820152601560248201527427b93232b91d1024b73b30b634b21039b4b3b732b960591b6044820152606401610441565b60008260a00135116113ad5760405162461bcd60e51b815260206004820152601960248201527f4f726465723a20416d6f756e742063616e6e6f742062652030000000000000006044820152606401610441565b6000826101800135116114145760405162461bcd60e51b815260206004820152602960248201527f4f726465723a204469737472696275746f722070657263656e7461676520636160448201526806e6e6f7420626520360bc1b6064820152608401610441565b61146c816114286040850160208601612457565b61143a6101c086016101a0870161276e565b856101c00135866101e001357f0000000000000000000000000000000000000000000000000000000000000000611e02565b6114ad5760405162461bcd60e51b815260206004820152601260248201527114da59db985d1d5c994e88125b9d985b1a5960721b6044820152606401610441565b6003546001600160a01b03166343b938c56114cf610100850160e08601612457565b6040516001600160e01b031960e084901b1681526001600160a01b03909116600482015260240160206040518083038186803b15801561150e57600080fd5b505afa158015611522573d6000803e3d6000fd5b505050506040513d601f19601f820116820180604052508101906115469190612548565b6115925760405162461bcd60e51b815260206004820152601960248201527f43757272656e63793a204e6f742077686974656c6973746564000000000000006044820152606401610441565b6005546001600160a01b031663999ba27c6115b360e0850160c08601612457565b6040516001600160e01b031960e084901b1681526001600160a01b03909116600482015260240160206040518083038186803b1580156115f257600080fd5b505afa158015611606573d6000803e3d6000fd5b505050506040513d601f19601f8201168201806040525081019061162a9190612548565b6116765760405162461bcd60e51b815260206004820152601960248201527f53747261746567793a204e6f742077686974656c6973746564000000000000006044820152606401610441565b5050565b60006116896020830183612457565b6001600160a01b031614156116d85760405162461bcd60e51b815260206004820152601560248201527427b93232b91d1024b73b30b634b21039b4b3b732b960591b6044820152606401610441565b6117396116ec6116e783612c35565b611f50565b6116f96020840184612457565b61170960a085016080860161276e565b8460a001358560c001357f0000000000000000000000000000000000000000000000000000000000000000611e02565b61177a5760405162461bcd60e51b815260206004820152601260248201527114da59db985d1d5c994e88125b9d985b1a5960721b6044820152606401610441565b6004546001600160a01b031663a1f61add6117986020840184612457565b6040516001600160e01b031960e084901b1681526001600160a01b03909116600482015260240160206040518083038186803b1580156117d757600080fd5b505afa1580156117eb573d6000803e3d6000fd5b505050506040513d601f19601f8201168201806040525081019061180f9190612548565b6110745760405162461bcd60e51b815260206004820152602360248201527f4469737472696275746f72205369676e65723a204e6f742077686974656c69736044820152621d195960ea1b6064820152608401610441565b8360006118748a83611fc9565b6002549091506001600160a01b03161580159061189057508015155b156118dc576002546118cf906001600160a01b037f0000000000000000000000000000000000000000000000000000000000000000811691168361205e565b6118d98183612c1e565b91505b5060006127106118ec8588612bff565b6118f69190612bdf565b90506001600160a01b0383161580159061190f57508015155b15611955576119486001600160a01b037f000000000000000000000000000000000000000000000000000000000000000016848361205e565b6119528183612c1e565b91505b50600654604051637a7b1afd60e11b81526001600160a01b038a81166004830152602482018a905260448201889052600092839291169063f4f635fa90606401604080518083038186803b1580156119ac57600080fd5b505afa1580156119c0573d6000803e3d6000fd5b505050506040513d601f19601f820116820180604052508101906119e4919061248f565b90925090506001600160a01b03821615801590611a0057508015155b15611ac857611a396001600160a01b037f000000000000000000000000000000000000000000000000000000000000000016838361205e565b611a438184612c1e565b9250816001600160a01b0316898b6001600160a01b03167f27c4f0403323142b599832f26acd21c74a9e5b809f2215726e244a4ac588cd7d7f000000000000000000000000000000000000000000000000000000000000000085604051611abf9291906001600160a01b03929092168252602082015260400190565b60405180910390a45b50611ad590508585612bff565b611ae182612710612bff565b1015611b2f5760405162461bcd60e51b815260206004820152601a60248201527f466565733a20486967686572207468616e2065787065637465640000000000006044820152606401610441565b611b636001600160a01b037f000000000000000000000000000000000000000000000000000000000000000016878361205e565b505050505050505050565b60075460405163cc15949360e01b81526001600160a01b038781166004830152600092169063cc1594939060240160206040518083038186803b158015611bb457600080fd5b505afa158015611bc8573d6000803e3d6000fd5b505050506040513d601f19601f82011682018060405250810190611bec9190612473565b90506001600160a01b038116611c585760405162461bcd60e51b815260206004820152602b60248201527f5472616e736665723a204e6f204e4654207472616e73666572206d616e61676560448201526a7220617661696c61626c6560a81b6064820152608401610441565b6040516333f2fa9f60e01b81526001600160a01b0387811660048301528681166024830152858116604483015260648201859052608482018490528216906333f2fa9f9060a401600060405180830381600087803b158015611cb957600080fd5b505af1158015611ccd573d6000803e3d6000fd5b50505050505050505050565b600180546001600160a01b038381166001600160a01b0319831681179093556040519116919082907f8be0079c531659141344cd1fd0a4f28419497f9722a3daafe3b4186f6b6457e090600090a35050565b6000611d80826040518060400160405280602081526020017f5361666545524332303a206c6f772d6c6576656c2063616c6c206661696c6564815250856001600160a01b031661208e9092919063ffffffff16565b805190915015611dfd5780806020019051810190611d9e9190612548565b611dfd5760405162461bcd60e51b815260206004820152602a60248201527f5361666545524332303a204552433230206f7065726174696f6e20646964206e6044820152691bdd081cdd58d8d9595960b21b6064820152608401610441565b505050565b60405161190160f01b602082015260228101829052604281018790526000908190606201604051602081830303815290604052805190602001209050611e51876001600160a01b03163b151590565b15611f2257604080516020810187905280820186905260f888901b6001600160f81b0319166060820152815160418183030181526061820192839052630b135d3f60e11b9092526001600160a01b03891691631626ba7e91611eb79185916065016129c4565b60206040518083038186803b158015611ecf57600080fd5b505afa158015611ee3573d6000803e3d6000fd5b505050506040513d601f19601f82011682018060405250810190611f07919061259a565b6001600160e01b031916631626ba7e60e01b14915050611f46565b866001600160a01b0316611f38828888886120a7565b6001600160a01b0316149150505b9695505050505050565b805160208083015160408085015160608601518051908501209151600095611206957f597f4482cb70c3e6383ea07e367a0df44f58a8d5c214a22186eaa64fe88aae5d959194919392019485526001600160a01b0393841660208601529190921660408401526060830191909152608082015260a00190565b600080836001600160a01b0316639dd1cda66040518163ffffffff1660e01b815260040160206040518083038186803b15801561200557600080fd5b505afa158015612019573d6000803e3d6000fd5b505050506040513d601f19601f8201168201806040525081019061203d9190612756565b905061271061204c8483612bff565b6120569190612bdf565b949350505050565b6040516001600160a01b038316602482015260448101829052611dfd90849063a9059cbb60e01b90606401611145565b606061209d848460008561223a565b90505b9392505050565b60007f7fffffffffffffffffffffffffffffff5d576e7357a4501ddfe92f46681b20a08211156121195760405162461bcd60e51b815260206004820152601e60248201527f5369676e61747572653a20496e76616c6964207320706172616d6574657200006044820152606401610441565b8360ff16601b148061212e57508360ff16601c145b61217a5760405162461bcd60e51b815260206004820152601e60248201527f5369676e61747572653a20496e76616c6964207620706172616d6574657200006044820152606401610441565b6040805160008082526020820180845288905260ff871692820192909252606081018590526080810184905260019060a0016020604051602081039080840390855afa1580156121ce573d6000803e3d6000fd5b5050604051601f1901519150506001600160a01b0381166122315760405162461bcd60e51b815260206004820152601960248201527f5369676e61747572653a20496e76616c6964207369676e6572000000000000006044820152606401610441565b95945050505050565b60608247101561229b5760405162461bcd60e51b815260206004820152602660248201527f416464726573733a20696e73756666696369656e742062616c616e636520666f6044820152651c8818d85b1b60d21b6064820152608401610441565b6001600160a01b0385163b6122f25760405162461bcd60e51b815260206004820152601d60248201527f416464726573733a2063616c6c20746f206e6f6e2d636f6e74726163740000006044820152606401610441565b600080866001600160a01b0316858760405161230e91906128db565b60006040518083038185875af1925050503d806000811461234b576040519150601f19603f3d011682016040523d82523d6000602084013e612350565b606091505b509150915061236082828661236b565b979650505050505050565b6060831561237a5750816120a0565b82511561238a5782518084602001fd5b8160405162461bcd60e51b815260040161044191906129dd565b80356123af81612d40565b919050565b80356123af81612d55565b600082601f8301126123cf578081fd5b813567ffffffffffffffff808211156123ea576123ea612d2a565b604051601f8301601f19908116603f0116810190828211818310171561241257612412612d2a565b8160405283815286602085880101111561242a578485fd5b8360208701602083013792830160200193909352509392505050565b803560ff811681146123af57600080fd5b600060208284031215612468578081fd5b81356120a081612d40565b600060208284031215612484578081fd5b81516120a081612d40565b600080604083850312156124a1578081fd5b82516124ac81612d40565b6020939093015192949293505050565b600080602083850312156124ce578182fd5b823567ffffffffffffffff808211156124e5578384fd5b818501915085601f8301126124f8578384fd5b813581811115612506578485fd5b8660208260051b850101111561251a578485fd5b60209290920196919550909350505050565b60006020828403121561253d578081fd5b81356120a081612d55565b600060208284031215612559578081fd5b81516120a081612d55565b600080600060608486031215612578578081fd5b835161258381612d55565b602085015160409095015190969495509392505050565b6000602082840312156125ab578081fd5b81516001600160e01b0319811681146120a0578182fd5b600061020082840312156125d4578081fd5b6125dc612b2e565b6125e5836123b4565b81526125f3602084016123a4565b6020820152612604604084016123a4565b6040820152606083013560608201526080830135608082015260a083013560a082015261263360c084016123a4565b60c082015261264460e084016123a4565b60e0820152610100838101359082015261012080840135908201526101408084013590820152610160808401359082015261018080840135908201526101a061268e818501612446565b908201526101c083810135908201526101e0928301359281019290925250919050565b60008060008385036102408112156126c7578182fd5b843567ffffffffffffffff808211156126de578384fd5b9086019060c082890312156126f1578384fd5b819550610200601f1984011215612706578384fd5b602087019450610220870135925080831115612720578384fd5b5050840160e08187031215612733578182fd5b809150509250925092565b60006020828403121561274f578081fd5b5035919050565b600060208284031215612767578081fd5b5051919050565b60006020828403121561277f578081fd5b6120a082612446565b81835281816020850137506000828201602090810191909152601f909101601f19169091010190565b600081518084526127c9816020860160208601612ccd565b601f01601f19169290920160200192915050565b6127f0826127ea836123b4565b15159052565b6127fc602082016123a4565b6001600160a01b03166020830152612816604082016123a4565b6001600160a01b038116604084015250606081013560608301526080810135608083015260a081013560a083015261285060c082016123a4565b6001600160a01b031660c083015261286a60e082016123a4565b6001600160a01b031660e0830152610100818101359083015261012080820135908301526101408082013590830152610160808201359083015261018080820135908301526101a06128bd818301612446565b60ff16908301526101c081810135908301526101e090810135910152565b600082516128ed818460208701612ccd565b9190910192915050565b6020808252810182905260006001600160fb1b03831115612916578081fd5b8260051b808560408501379190910160400190815292915050565b8e81528d151560208201526001600160a01b038d811660408301528c1660608201526101c081018b60808301528a60a08301528960c083015261297f60e083018a6001600160a01b03169052565b6001600160a01b0388166101008301526101208201969096526101408101949094526101608401929092526101808301526101a0909101529998505050505050505050565b82815260406020820152600061209d60408301846127b1565b6020815260006120a060208301846127b1565b6020808252601d908201527f4f776e65723a2043616e6e6f74206265206e756c6c2061646472657373000000604082015260600190565b6020808252818101527f4f776e61626c653a2063616c6c6572206973206e6f7420746865206f776e6572604082015260600190565b60208082526026908201527f43616e63656c3a204f72646572206e6f6e6365206c6f776572207468616e20636040820152651d5c9c995b9d60d21b606082015260800190565b60006102208083528435612ab581612d55565b1515908301526020840135612ac981612d40565b6001600160a01b03166102408301526040840135610260830152606084013561028083015260808401356102a0830152612b0660a0850185612b7b565b60c06102c0850152612b1d6102e085018284612788565b925050506120a060208301846127dd565b604051610200810167ffffffffffffffff81118282101715612b5257612b52612d2a565b60405290565b60405160e0810167ffffffffffffffff81118282101715612b5257612b52612d2a565b6000808335601e19843603018112612b91578283fd5b830160208101925035905067ffffffffffffffff811115612bb157600080fd5b803603831315612bc057600080fd5b9250929050565b60008219821115612bda57612bda612d14565b500190565b600082612bfa57634e487b7160e01b81526012600452602481fd5b500490565b6000816000190483118215151615612c1957612c19612d14565b500290565b600082821015612c3057612c30612d14565b500390565b600060e08236031215612c46578081fd5b612c4e612b58565b612c57836123a4565b8152612c65602084016123a4565b602082015260408301356040820152606083013567ffffffffffffffff811115612c8d578283fd5b612c99368286016123bf565b606083015250612cab60808401612446565b608082015260a083013560a082015260c083013560c082015280915050919050565b60005b83811015612ce8578181015183820152602001612cd0565b8381111561117c5750506000910152565b6000600019821415612d0d57612d0d612d14565b5060010190565b634e487b7160e01b600052601160045260246000fd5b634e487b7160e01b600052604160045260246000fd5b6001600160a01b038116811461107457600080fd5b801515811461107457600080fdfea26469706673582212202161f38a18945cbeaeca6aed166261d920a55362cf14d04a1c3c727e5f05563f64736f6c63430008040033",
  "linkReferences": {},
  "deployedLinkReferences": {}
}